{
  "contractName": "DonorContract",
  "abi": [
    {
      "inputs": [
        {
          "internalType": "string",
          "name": "_fullname",
          "type": "string"
        },
        {
          "internalType": "uint256",
          "name": "_age",
          "type": "uint256"
        },
        {
          "internalType": "string",
          "name": "_gender",
          "type": "string"
        },
        {
          "internalType": "string",
          "name": "_medical_id",
          "type": "string"
        },
        {
          "internalType": "string",
          "name": "_blood_type",
          "type": "string"
        },
        {
          "internalType": "string[]",
          "name": "_organ",
          "type": "string[]"
        },
        {
          "internalType": "uint256",
          "name": "_weight",
          "type": "uint256"
        },
        {
          "internalType": "uint256",
          "name": "_height",
          "type": "uint256"
        }
      ],
      "name": "setDonors",
      "outputs": [],
      "stateMutability": "nonpayable",
      "type": "function"
    },
    {
      "inputs": [
        {
          "internalType": "string",
          "name": "_fullname",
          "type": "string"
        },
        {
          "internalType": "uint256",
          "name": "_age",
          "type": "uint256"
        },
        {
          "internalType": "string",
          "name": "_gender",
          "type": "string"
        },
        {
          "internalType": "string",
          "name": "_medical_id",
          "type": "string"
        },
        {
          "internalType": "string",
          "name": "_blood_type",
          "type": "string"
        },
        {
          "internalType": "string[]",
          "name": "_organ",
          "type": "string[]"
        },
        {
          "internalType": "uint256",
          "name": "_weight",
          "type": "uint256"
        },
        {
          "internalType": "uint256",
          "name": "_height",
          "type": "uint256"
        }
      ],
      "name": "setPatients",
      "outputs": [],
      "stateMutability": "nonpayable",
      "type": "function"
    },
    {
      "inputs": [
        {
          "internalType": "string",
          "name": "_medical_id",
          "type": "string"
        }
      ],
      "name": "getDonor",
      "outputs": [
        {
          "internalType": "string",
          "name": "",
          "type": "string"
        },
        {
          "internalType": "uint256",
          "name": "",
          "type": "uint256"
        },
        {
          "internalType": "string",
          "name": "",
          "type": "string"
        },
        {
          "internalType": "string",
          "name": "",
          "type": "string"
        },
        {
          "internalType": "string[]",
          "name": "",
          "type": "string[]"
        },
        {
          "internalType": "uint256",
          "name": "",
          "type": "uint256"
        },
        {
          "internalType": "uint256",
          "name": "",
          "type": "uint256"
        }
      ],
      "stateMutability": "view",
      "type": "function",
      "constant": true
    },
    {
      "inputs": [
        {
          "internalType": "string",
          "name": "_medical_id",
          "type": "string"
        }
      ],
      "name": "getPatient",
      "outputs": [
        {
          "internalType": "string",
          "name": "",
          "type": "string"
        },
        {
          "internalType": "uint256",
          "name": "",
          "type": "uint256"
        },
        {
          "internalType": "string",
          "name": "",
          "type": "string"
        },
        {
          "internalType": "string",
          "name": "",
          "type": "string"
        },
        {
          "internalType": "string[]",
          "name": "",
          "type": "string[]"
        },
        {
          "internalType": "uint256",
          "name": "",
          "type": "uint256"
        },
        {
          "internalType": "uint256",
          "name": "",
          "type": "uint256"
        }
      ],
      "stateMutability": "view",
      "type": "function",
      "constant": true
    },
    {
      "inputs": [
        {
          "internalType": "string",
          "name": "_medical_id",
          "type": "string"
        }
      ],
      "name": "validateDonor",
      "outputs": [
        {
          "internalType": "bool",
          "name": "",
          "type": "bool"
        }
      ],
      "stateMutability": "view",
      "type": "function",
      "constant": true
    },
    {
      "inputs": [
        {
          "internalType": "string",
          "name": "_medical_id",
          "type": "string"
        }
      ],
      "name": "validatePatient",
      "outputs": [
        {
          "internalType": "bool",
          "name": "",
          "type": "bool"
        }
      ],
      "stateMutability": "view",
      "type": "function",
      "constant": true
    },
    {
      "inputs": [],
      "name": "getAllDonorIDs",
      "outputs": [
        {
          "internalType": "string[]",
          "name": "",
          "type": "string[]"
        }
      ],
      "stateMutability": "view",
      "type": "function",
      "constant": true
    },
    {
      "inputs": [],
      "name": "getAllPatientIDs",
      "outputs": [
        {
          "internalType": "string[]",
          "name": "",
          "type": "string[]"
        }
      ],
      "stateMutability": "view",
      "type": "function",
      "constant": true
    },
    {
      "inputs": [],
      "name": "getCountOfDonors",
      "outputs": [
        {
          "internalType": "uint256",
          "name": "",
          "type": "uint256"
        }
      ],
      "stateMutability": "view",
      "type": "function",
      "constant": true
    },
    {
      "inputs": [],
      "name": "getCountOfPatients",
      "outputs": [
        {
          "internalType": "uint256",
          "name": "",
          "type": "uint256"
        }
      ],
      "stateMutability": "view",
      "type": "function",
      "constant": true
    }
  ],
  "bytecode": "0x608060405234801561001057600080fd5b50611a25806100206000396000f3fe608060405234801561001057600080fd5b506004361061009e5760003560e01c8063b388561011610066578063b388561014610161578063d0544a8d1461017f578063d0e0579b1461019d578063e79a7a2e146101b9578063ef1215c3146101ef5761009e565b806331dad732146100a357806336aa555e146100d9578063778b5f25146100f557806389d53d00146101135780639b81120914610131575b600080fd5b6100bd60048036038101906100b89190611348565b61021f565b6040516100d0979695949392919061153e565b60405180910390f35b6100f360048036038101906100ee91906116db565b6105a5565b005b6100fd6107e4565b60405161010a919061181d565b60405180910390f35b61011b6108bd565b604051610128919061183f565b60405180910390f35b61014b60048036038101906101469190611348565b6108ca565b6040516101589190611875565b60405180910390f35b610169610953565b604051610176919061183f565b60405180910390f35b610187610960565b604051610194919061181d565b60405180910390f35b6101b760048036038101906101b291906116db565b610a39565b005b6101d360048036038101906101ce9190611348565b610c78565b6040516101e6979695949392919061153e565b60405180910390f35b61020960048036038101906102049190611348565b610ffe565b6040516102169190611875565b60405180910390f35b60606000606080606060008060008860405161023b91906118cc565b908152602001604051809103902060000160008960405161025c91906118cc565b90815260200160405180910390206001015460008a60405161027e91906118cc565b908152602001604051809103902060020160008b60405161029f91906118cc565b908152602001604051809103902060040160008c6040516102c091906118cc565b908152602001604051809103902060050160008d6040516102e191906118cc565b90815260200160405180910390206006015460008e60405161030391906118cc565b90815260200160405180910390206007015486805461032190611912565b80601f016020809104026020016040519081016040528092919081815260200182805461034d90611912565b801561039a5780601f1061036f5761010080835404028352916020019161039a565b820191906000526020600020905b81548152906001019060200180831161037d57829003601f168201915b505050505096508480546103ad90611912565b80601f01602080910402602001604051908101604052809291908181526020018280546103d990611912565b80156104265780601f106103fb57610100808354040283529160200191610426565b820191906000526020600020905b81548152906001019060200180831161040957829003601f168201915b5050505050945083805461043990611912565b80601f016020809104026020016040519081016040528092919081815260200182805461046590611912565b80156104b25780601f10610487576101008083540402835291602001916104b2565b820191906000526020600020905b81548152906001019060200180831161049557829003601f168201915b5050505050935082805480602002602001604051908101604052809291908181526020016000905b828210156105865783829060005260206000200180546104f990611912565b80601f016020809104026020016040519081016040528092919081815260200182805461052590611912565b80156105725780601f1061054757610100808354040283529160200191610572565b820191906000526020600020905b81548152906001019060200180831161055557829003601f168201915b5050505050815260200190600101906104da565b5050505092509650965096509650965096509650919395979092949650565b846040516020016105b691906118cc565b604051602081830303815290604052805190602001206000866040516105dc91906118cc565b90815260200160405180910390206003016040516020016105fd91906119d8565b60405160208183030381529060405280519060200120141561061e57600080fd5b8760008660405161062f91906118cc565b90815260200160405180910390206000019080519060200190610653929190611087565b508660008660405161066591906118cc565b9081526020016040518091039020600101819055508560008660405161068b91906118cc565b908152602001604051809103902060020190805190602001906106af929190611087565b50846000866040516106c191906118cc565b908152602001604051809103902060030190805190602001906106e5929190611087565b50836000866040516106f791906118cc565b9081526020016040518091039020600401908051906020019061071b929190611087565b508260008660405161072d91906118cc565b9081526020016040518091039020600501908051906020019061075192919061110d565b508160008660405161076391906118cc565b9081526020016040518091039020600601819055508060008660405161078991906118cc565b9081526020016040518091039020600701819055506002859080600181540180825580915050600190039060005260206000200160009091909190915090805190602001906107d9929190611087565b505050505050505050565b60606002805480602002602001604051908101604052809291908181526020016000905b828210156108b457838290600052602060002001805461082790611912565b80601f016020809104026020016040519081016040528092919081815260200182805461085390611912565b80156108a05780601f10610875576101008083540402835291602001916108a0565b820191906000526020600020905b81548152906001019060200180831161088357829003601f168201915b505050505081526020019060010190610808565b50505050905090565b6000600280549050905090565b6000816040516020016108dd91906118cc565b6040516020818303038152906040528051906020012060008360405161090391906118cc565b908152602001604051809103902060030160405160200161092491906119d8565b604051602081830303815290604052805190602001201415610949576001905061094e565b600090505b919050565b6000600380549050905090565b60606003805480602002602001604051908101604052809291908181526020016000905b82821015610a305783829060005260206000200180546109a390611912565b80601f01602080910402602001604051908101604052809291908181526020018280546109cf90611912565b8015610a1c5780601f106109f157610100808354040283529160200191610a1c565b820191906000526020600020905b8154815290600101906020018083116109ff57829003601f168201915b505050505081526020019060010190610984565b50505050905090565b84604051602001610a4a91906118cc565b60405160208183030381529060405280519060200120600086604051610a7091906118cc565b9081526020016040518091039020600301604051602001610a9191906119d8565b604051602081830303815290604052805190602001201415610ab257600080fd5b87600186604051610ac391906118cc565b90815260200160405180910390206000019080519060200190610ae7929190611087565b5086600186604051610af991906118cc565b90815260200160405180910390206001018190555085600186604051610b1f91906118cc565b90815260200160405180910390206002019080519060200190610b43929190611087565b5084600186604051610b5591906118cc565b90815260200160405180910390206003019080519060200190610b79929190611087565b5083600186604051610b8b91906118cc565b90815260200160405180910390206004019080519060200190610baf929190611087565b5082600186604051610bc191906118cc565b90815260200160405180910390206005019080519060200190610be592919061110d565b5081600186604051610bf791906118cc565b90815260200160405180910390206006018190555080600186604051610c1d91906118cc565b908152602001604051809103902060070181905550600385908060018154018082558091505060019003906000526020600020016000909190919091509080519060200190610c6d929190611087565b505050505050505050565b606060006060806060600080600188604051610c9491906118cc565b9081526020016040518091039020600001600189604051610cb591906118cc565b90815260200160405180910390206001015460018a604051610cd791906118cc565b908152602001604051809103902060020160018b604051610cf891906118cc565b908152602001604051809103902060040160018c604051610d1991906118cc565b908152602001604051809103902060050160018d604051610d3a91906118cc565b90815260200160405180910390206006015460018e604051610d5c91906118cc565b908152602001604051809103902060070154868054610d7a90611912565b80601f0160208091040260200160405190810160405280929190818152602001828054610da690611912565b8015610df35780601f10610dc857610100808354040283529160200191610df3565b820191906000526020600020905b815481529060010190602001808311610dd657829003601f168201915b50505050509650848054610e0690611912565b80601f0160208091040260200160405190810160405280929190818152602001828054610e3290611912565b8015610e7f5780601f10610e5457610100808354040283529160200191610e7f565b820191906000526020600020905b815481529060010190602001808311610e6257829003601f168201915b50505050509450838054610e9290611912565b80601f0160208091040260200160405190810160405280929190818152602001828054610ebe90611912565b8015610f0b5780601f10610ee057610100808354040283529160200191610f0b565b820191906000526020600020905b815481529060010190602001808311610eee57829003601f168201915b5050505050935082805480602002602001604051908101604052809291908181526020016000905b82821015610fdf578382906000526020600020018054610f5290611912565b80601f0160208091040260200160405190810160405280929190818152602001828054610f7e90611912565b8015610fcb5780601f10610fa057610100808354040283529160200191610fcb565b820191906000526020600020905b815481529060010190602001808311610fae57829003601f168201915b505050505081526020019060010190610f33565b5050505092509650965096509650965096509650919395979092949650565b60008160405160200161101191906118cc565b6040516020818303038152906040528051906020012060018360405161103791906118cc565b908152602001604051809103902060030160405160200161105891906119d8565b60405160208183030381529060405280519060200120141561107d5760019050611082565b600090505b919050565b82805461109390611912565b90600052602060002090601f0160209004810192826110b557600085556110fc565b82601f106110ce57805160ff19168380011785556110fc565b828001600101855582156110fc579182015b828111156110fb5782518255916020019190600101906110e0565b5b509050611109919061116d565b5090565b82805482825590600052602060002090810192821561115c579160200282015b8281111561115b57825182908051906020019061114b929190611087565b509160200191906001019061112d565b5b509050611169919061118a565b5090565b5b8082111561118657600081600090555060010161116e565b5090565b5b808211156111aa57600081816111a191906111ae565b5060010161118b565b5090565b5080546111ba90611912565b6000825580601f106111cc57506111eb565b601f0160209004906000526020600020908101906111ea919061116d565b5b50565b6000604051905090565b600080fd5b600080fd5b600080fd5b600080fd5b6000601f19601f8301169050919050565b7f4e487b7100000000000000000000000000000000000000000000000000000000600052604160045260246000fd5b6112558261120c565b810181811067ffffffffffffffff821117156112745761127361121d565b5b80604052505050565b60006112876111ee565b9050611293828261124c565b919050565b600067ffffffffffffffff8211156112b3576112b261121d565b5b6112bc8261120c565b9050602081019050919050565b82818337600083830152505050565b60006112eb6112e684611298565b61127d565b90508281526020810184848401111561130757611306611207565b5b6113128482856112c9565b509392505050565b600082601f83011261132f5761132e611202565b5b813561133f8482602086016112d8565b91505092915050565b60006020828403121561135e5761135d6111f8565b5b600082013567ffffffffffffffff81111561137c5761137b6111fd565b5b6113888482850161131a565b91505092915050565b600081519050919050565b600082825260208201905092915050565b60005b838110156113cb5780820151818401526020810190506113b0565b838111156113da576000848401525b50505050565b60006113eb82611391565b6113f5818561139c565b93506114058185602086016113ad565b61140e8161120c565b840191505092915050565b6000819050919050565b61142c81611419565b82525050565b600081519050919050565b600082825260208201905092915050565b6000819050602082019050919050565b600082825260208201905092915050565b600061147a82611391565b611484818561145e565b93506114948185602086016113ad565b61149d8161120c565b840191505092915050565b60006114b4838361146f565b905092915050565b6000602082019050919050565b60006114d482611432565b6114de818561143d565b9350836020820285016114f08561144e565b8060005b8581101561152c578484038952815161150d85826114a8565b9450611518836114bc565b925060208a019950506001810190506114f4565b50829750879550505050505092915050565b600060e0820190508181036000830152611558818a6113e0565b90506115676020830189611423565b818103604083015261157981886113e0565b9050818103606083015261158d81876113e0565b905081810360808301526115a181866114c9565b90506115b060a0830185611423565b6115bd60c0830184611423565b98975050505050505050565b6115d281611419565b81146115dd57600080fd5b50565b6000813590506115ef816115c9565b92915050565b600067ffffffffffffffff8211156116105761160f61121d565b5b602082029050602081019050919050565b600080fd5b6000611639611634846115f5565b61127d565b9050808382526020820190506020840283018581111561165c5761165b611621565b5b835b818110156116a357803567ffffffffffffffff81111561168157611680611202565b5b80860161168e898261131a565b8552602085019450505060208101905061165e565b5050509392505050565b600082601f8301126116c2576116c1611202565b5b81356116d2848260208601611626565b91505092915050565b600080600080600080600080610100898b0312156116fc576116fb6111f8565b5b600089013567ffffffffffffffff81111561171a576117196111fd565b5b6117268b828c0161131a565b98505060206117378b828c016115e0565b975050604089013567ffffffffffffffff811115611758576117576111fd565b5b6117648b828c0161131a565b965050606089013567ffffffffffffffff811115611785576117846111fd565b5b6117918b828c0161131a565b955050608089013567ffffffffffffffff8111156117b2576117b16111fd565b5b6117be8b828c0161131a565b94505060a089013567ffffffffffffffff8111156117df576117de6111fd565b5b6117eb8b828c016116ad565b93505060c06117fc8b828c016115e0565b92505060e061180d8b828c016115e0565b9150509295985092959890939650565b6000602082019050818103600083015261183781846114c9565b905092915050565b60006020820190506118546000830184611423565b92915050565b60008115159050919050565b61186f8161185a565b82525050565b600060208201905061188a6000830184611866565b92915050565b600081905092915050565b60006118a682611391565b6118b08185611890565b93506118c08185602086016113ad565b80840191505092915050565b60006118d8828461189b565b915081905092915050565b7f4e487b7100000000000000000000000000000000000000000000000000000000600052602260045260246000fd5b6000600282049050600182168061192a57607f821691505b6020821081141561193e5761193d6118e3565b5b50919050565b60008190508160005260206000209050919050565b6000815461196681611912565b6119708186611890565b9450600182166000811461198b576001811461199c576119cf565b60ff198316865281860193506119cf565b6119a585611944565b60005b838110156119c7578154818901526001820191506020810190506119a8565b838801955050505b50505092915050565b60006119e48284611959565b91508190509291505056fea264697066735822122096c717c27c62e043a302a9a22cd7a8854f6889f2b3a0c9f97600e789dd3bda5664736f6c634300080a0033",
  "immutableReferences": {},
  "source": "pragma solidity ^0.8.10;\n\ncontract DonorContract {\n\n    struct donor\n    {\n        string fullname;\n        uint age;\n        string gender;\n        string medical_id;\n        string blood_type;\n        string[] organ;\n        uint weight;\n        uint height;\n    }\n\n    struct patient\n    {\n        string fullname;\n        uint age;\n        string gender;\n        string medical_id;\n        string blood_type;\n        string[] organ;\n        uint weight;\n        uint height;\n    }\n    mapping ( string =>donor ) donorMap;\n    mapping ( string =>patient) patientMap;\n\n    string[] DonorsArray;\n    string[] PatientsArray;\n\n    function setDonors(string memory _fullname, uint _age, string memory _gender, string memory _medical_id,\n                       string memory _blood_type, string[] memory _organ, uint _weight, uint _height)\n    public\n    {\n        require ( keccak256(abi.encodePacked((donorMap[_medical_id].medical_id))) != keccak256(abi.encodePacked(_medical_id)));\n        donorMap[_medical_id].fullname = _fullname;\n        donorMap[_medical_id].age = _age;\n        donorMap[_medical_id].gender = _gender;\n        donorMap[_medical_id].medical_id = _medical_id;\n        donorMap[_medical_id].blood_type = _blood_type;\n        donorMap[_medical_id].organ = _organ;\n        donorMap[_medical_id].weight = _weight;\n        donorMap[_medical_id].height = _height;\n\n        DonorsArray.push(_medical_id);\n    }\n\n    function setPatients(string memory _fullname, uint _age, string memory _gender, string memory _medical_id,\n                       string memory _blood_type, string[] memory _organ, uint _weight, uint _height)\n    public\n    {\n        require ( keccak256(abi.encodePacked((donorMap[_medical_id].medical_id))) != keccak256(abi.encodePacked(_medical_id)));\n        patientMap[_medical_id].fullname = _fullname;\n        patientMap[_medical_id].age = _age;\n        patientMap[_medical_id].gender = _gender;\n        patientMap[_medical_id].medical_id = _medical_id;\n        patientMap[_medical_id].blood_type = _blood_type;\n        patientMap[_medical_id].organ = _organ;\n        patientMap[_medical_id].weight = _weight;\n        patientMap[_medical_id].height = _height;\n\n        PatientsArray.push(_medical_id);\n    }\n\n    function getDonor(string memory _medical_id) view public returns(string memory, uint, string memory, string memory, string[] memory, uint, uint)\n    {\n        return\n        (\n            donorMap[_medical_id].fullname,\n            donorMap[_medical_id].age,\n            donorMap[_medical_id].gender,\n            donorMap[_medical_id].blood_type,\n            donorMap[_medical_id].organ,\n            donorMap[_medical_id].weight,\n            donorMap[_medical_id].height\n        );\n    }\n\n    function getPatient(string memory _medical_id) view public returns(string memory, uint, string memory, string memory, string[] memory, uint, uint)\n    {\n        return\n        (\n            patientMap[_medical_id].fullname,\n            patientMap[_medical_id].age,\n            patientMap[_medical_id].gender,\n            patientMap[_medical_id].blood_type,\n            patientMap[_medical_id].organ,\n            patientMap[_medical_id].weight,\n            patientMap[_medical_id].height\n        );\n    }\n\n    function validateDonor(string memory _medical_id) view public returns(bool)\n    {\n\n     if (keccak256(abi.encodePacked((donorMap[_medical_id].medical_id))) == keccak256(abi.encodePacked(_medical_id)))\n        return true;\n     else return false;\n\n    }\n\n    function validatePatient(string memory _medical_id) view public returns(bool)\n    {\n\n     if (keccak256(abi.encodePacked((patientMap[_medical_id].medical_id))) == keccak256(abi.encodePacked(_medical_id)))\n        return true;\n     else return false;\n\n    }\n\n    function getAllDonorIDs() view public returns(string[] memory)\n    {\n        return DonorsArray;\n    }\n\n    function getAllPatientIDs() view public returns(string[] memory)\n    {\n        return PatientsArray;\n    }\n\n    function getCountOfDonors() view public returns (uint)\n    {\n        return DonorsArray.length;\n    }\n\n    function getCountOfPatients() view public returns (uint)\n    {\n        return PatientsArray.length;\n    }\n\n}",
  "sourcePath": "/Users/saikiran/Documents/BlockChain/OrganDonationPlatform/organ-donation-platform/contracts/DonorContract.sol",
  "compiler": {
    "name": "solc",
    "version": "0.8.10+commit.fc410830.Emscripten.clang"
  },
  "schemaVersion": "3.4.11",
  "updatedAt": "2023-04-28T02:08:15.784Z",
  "networkType": "ethereum",
  "devdoc": {
    "kind": "dev",
    "methods": {},
    "version": 1
  },
  "userdoc": {
    "kind": "user",
    "methods": {},
    "version": 1
  }
}