{
  "contractName": "TransplantContract",
  "abi": [
    {
      "inputs": [
        {
          "internalType": "string",
          "name": "_fullname",
          "type": "string"
        },
        {
          "internalType": "uint256",
          "name": "_age",
          "type": "uint256"
        },
        {
          "internalType": "string",
          "name": "_gender",
          "type": "string"
        },
        {
          "internalType": "string",
          "name": "_medical_id",
          "type": "string"
        },
        {
          "internalType": "string",
          "name": "_blood_type",
          "type": "string"
        },
        {
          "internalType": "uint256",
          "name": "_weight",
          "type": "uint256"
        },
        {
          "internalType": "uint256",
          "name": "_height",
          "type": "uint256"
        }
      ],
      "name": "setTransporter",
      "outputs": [],
      "stateMutability": "nonpayable",
      "type": "function"
    },
    {
      "inputs": [
        {
          "internalType": "string",
          "name": "_medical_id",
          "type": "string"
        }
      ],
      "name": "getDoctor",
      "outputs": [
        {
          "internalType": "string",
          "name": "",
          "type": "string"
        },
        {
          "internalType": "uint256",
          "name": "",
          "type": "uint256"
        },
        {
          "internalType": "string",
          "name": "",
          "type": "string"
        },
        {
          "internalType": "string",
          "name": "",
          "type": "string"
        },
        {
          "internalType": "string",
          "name": "",
          "type": "string"
        },
        {
          "internalType": "uint256",
          "name": "",
          "type": "uint256"
        },
        {
          "internalType": "uint256",
          "name": "",
          "type": "uint256"
        }
      ],
      "stateMutability": "view",
      "type": "function",
      "constant": true
    },
    {
      "inputs": [
        {
          "internalType": "string",
          "name": "_fullname",
          "type": "string"
        },
        {
          "internalType": "uint256",
          "name": "_age",
          "type": "uint256"
        },
        {
          "internalType": "string",
          "name": "_gender",
          "type": "string"
        },
        {
          "internalType": "string",
          "name": "_medical_id",
          "type": "string"
        },
        {
          "internalType": "string",
          "name": "_blood_type",
          "type": "string"
        },
        {
          "internalType": "string",
          "name": "_type",
          "type": "string"
        },
        {
          "internalType": "uint256",
          "name": "_weight",
          "type": "uint256"
        },
        {
          "internalType": "uint256",
          "name": "_height",
          "type": "uint256"
        }
      ],
      "name": "setDoctor",
      "outputs": [],
      "stateMutability": "nonpayable",
      "type": "function"
    },
    {
      "inputs": [
        {
          "internalType": "string",
          "name": "_medical_id",
          "type": "string"
        },
        {
          "internalType": "string",
          "name": "status",
          "type": "string"
        }
      ],
      "name": "setStatus",
      "outputs": [],
      "stateMutability": "nonpayable",
      "type": "function"
    },
    {
      "inputs": [
        {
          "internalType": "string",
          "name": "_medical_id",
          "type": "string"
        }
      ],
      "name": "getStatus",
      "outputs": [
        {
          "internalType": "string",
          "name": "",
          "type": "string"
        }
      ],
      "stateMutability": "view",
      "type": "function",
      "constant": true
    },
    {
      "inputs": [
        {
          "internalType": "string",
          "name": "_medical_id",
          "type": "string"
        }
      ],
      "name": "assignTransporter",
      "outputs": [],
      "stateMutability": "nonpayable",
      "type": "function"
    },
    {
      "inputs": [
        {
          "internalType": "string",
          "name": "_assigned_id",
          "type": "string"
        }
      ],
      "name": "isTransporterAssigned",
      "outputs": [
        {
          "internalType": "bool",
          "name": "",
          "type": "bool"
        }
      ],
      "stateMutability": "view",
      "type": "function",
      "constant": true
    },
    {
      "inputs": [
        {
          "internalType": "string",
          "name": "_assigned_id",
          "type": "string"
        }
      ],
      "name": "getMedicalidOfTransporter",
      "outputs": [
        {
          "internalType": "string",
          "name": "",
          "type": "string"
        }
      ],
      "stateMutability": "view",
      "type": "function",
      "constant": true
    },
    {
      "inputs": [
        {
          "internalType": "string",
          "name": "_medical_id",
          "type": "string"
        }
      ],
      "name": "getTransporter",
      "outputs": [
        {
          "internalType": "string",
          "name": "",
          "type": "string"
        },
        {
          "internalType": "uint256",
          "name": "",
          "type": "uint256"
        },
        {
          "internalType": "string",
          "name": "",
          "type": "string"
        },
        {
          "internalType": "string",
          "name": "",
          "type": "string"
        },
        {
          "internalType": "uint256",
          "name": "",
          "type": "uint256"
        },
        {
          "internalType": "uint256",
          "name": "",
          "type": "uint256"
        }
      ],
      "stateMutability": "view",
      "type": "function",
      "constant": true
    },
    {
      "inputs": [
        {
          "internalType": "string",
          "name": "_medical_id",
          "type": "string"
        }
      ],
      "name": "validateDoctor",
      "outputs": [
        {
          "internalType": "bool",
          "name": "",
          "type": "bool"
        }
      ],
      "stateMutability": "view",
      "type": "function",
      "constant": true
    },
    {
      "inputs": [
        {
          "internalType": "string",
          "name": "_medical_id",
          "type": "string"
        }
      ],
      "name": "validateTransporter",
      "outputs": [
        {
          "internalType": "bool",
          "name": "",
          "type": "bool"
        }
      ],
      "stateMutability": "view",
      "type": "function",
      "constant": true
    },
    {
      "inputs": [],
      "name": "getAllTransporterIDs",
      "outputs": [
        {
          "internalType": "string[]",
          "name": "",
          "type": "string[]"
        }
      ],
      "stateMutability": "view",
      "type": "function",
      "constant": true
    },
    {
      "inputs": [],
      "name": "getAllDoctorIDs",
      "outputs": [
        {
          "internalType": "string[]",
          "name": "",
          "type": "string[]"
        }
      ],
      "stateMutability": "view",
      "type": "function",
      "constant": true
    },
    {
      "inputs": [],
      "name": "getCountOfTransporters",
      "outputs": [
        {
          "internalType": "uint256",
          "name": "",
          "type": "uint256"
        }
      ],
      "stateMutability": "view",
      "type": "function",
      "constant": true
    },
    {
      "inputs": [],
      "name": "getCountOfDoctors",
      "outputs": [
        {
          "internalType": "uint256",
          "name": "",
          "type": "uint256"
        }
      ],
      "stateMutability": "view",
      "type": "function",
      "constant": true
    }
  ],
  "bytecode": "0x608060405234801561001057600080fd5b50612176806100206000396000f3fe608060405234801561001057600080fd5b50600436106100f55760003560e01c806362821db211610097578063c559003311610066578063c5590033146102b9578063cd6844ce146102d5578063d555e210146102f1578063f1d656881461030d576100f5565b806362821db21461020d5780636e9b95821461023d578063873d11951461026d578063a3753e661461029d576100f5565b806339266241116100d3578063392662411461017d5780634f57a1cb1461019b5780635ca24bbb146101b957806360499092146101d7576100f5565b80630d06b410146100fa57806322b05ed21461011857806327721d8014610148575b600080fd5b61010261033d565b60405161010f91906118b7565b60405180910390f35b610132600480360381019061012d9190611a22565b610416565b60405161013f9190611ab5565b60405180910390f35b610162600480360381019061015d9190611a22565b6105b4565b60405161017496959493929190611af0565b60405180910390f35b610185610840565b6040516101929190611b66565b60405180910390f35b6101a361084d565b6040516101b09190611b66565b60405180910390f35b6101c161085a565b6040516101ce91906118b7565b60405180910390f35b6101f160048036038101906101ec9190611a22565b610933565b6040516102049796959493929190611b81565b60405180910390f35b61022760048036038101906102229190611a22565b610c72565b6040516102349190611ab5565b60405180910390f35b61025760048036038101906102529190611a22565b610df0565b6040516102649190611c27565b60405180910390f35b61028760048036038101906102829190611a22565b610e79565b6040516102949190611c27565b60405180910390f35b6102b760048036038101906102b29190611c6e565b610f02565b005b6102d360048036038101906102ce9190611d80565b611189565b005b6102ef60048036038101906102ea9190611df8565b611235565b005b61030b60048036038101906103069190611a22565b611474565b005b61032760048036038101906103229190611a22565b6115a1565b6040516103349190611c27565b60405180910390f35b60606004805480602002602001604051908101604052809291908181526020016000905b8282101561040d57838290600052602060002001805461038090611f69565b80601f01602080910402602001604051908101604052809291908181526020018280546103ac90611f69565b80156103f95780601f106103ce576101008083540402835291602001916103f9565b820191906000526020600020905b8154815290600101906020018083116103dc57829003601f168201915b505050505081526020019060010190610361565b50505050905090565b606060005b60058054905081101561059b57826040516020016104399190611fd7565b6040516020818303038152906040528051906020012060026005838154811061046557610464611fee565b5b9060005260206000200160405161047c91906120b1565b908152602001604051809103902060000160405160200161049d91906120b1565b604051602081830303815290604052805190602001201415610588576002600582815481106104cf576104ce611fee565b5b906000526020600020016040516104e691906120b1565b9081526020016040518091039020600101805461050290611f69565b80601f016020809104026020016040519081016040528092919081815260200182805461052e90611f69565b801561057b5780601f106105505761010080835404028352916020019161057b565b820191906000526020600020905b81548152906001019060200180831161055e57829003601f168201915b50505050509150506105af565b8080610593906120f7565b91505061041b565b506040518060200160405280600081525090505b919050565b606060006060806000806001876040516105ce9190611fd7565b90815260200160405180910390206000016001886040516105ef9190611fd7565b9081526020016040518091039020600101546001896040516106119190611fd7565b908152602001604051809103902060020160018a6040516106329190611fd7565b908152602001604051809103902060040160018b6040516106539190611fd7565b90815260200160405180910390206007015460018c6040516106759190611fd7565b90815260200160405180910390206008015485805461069390611f69565b80601f01602080910402602001604051908101604052809291908181526020018280546106bf90611f69565b801561070c5780601f106106e15761010080835404028352916020019161070c565b820191906000526020600020905b8154815290600101906020018083116106ef57829003601f168201915b5050505050955083805461071f90611f69565b80601f016020809104026020016040519081016040528092919081815260200182805461074b90611f69565b80156107985780601f1061076d57610100808354040283529160200191610798565b820191906000526020600020905b81548152906001019060200180831161077b57829003601f168201915b505050505093508280546107ab90611f69565b80601f01602080910402602001604051908101604052809291908181526020018280546107d790611f69565b80156108245780601f106107f957610100808354040283529160200191610824565b820191906000526020600020905b81548152906001019060200180831161080757829003601f168201915b5050505050925095509550955095509550955091939550919395565b6000600380549050905090565b6000600480549050905090565b60606003805480602002602001604051908101604052809291908181526020016000905b8282101561092a57838290600052602060002001805461089d90611f69565b80601f01602080910402602001604051908101604052809291908181526020018280546108c990611f69565b80156109165780601f106108eb57610100808354040283529160200191610916565b820191906000526020600020905b8154815290600101906020018083116108f957829003601f168201915b50505050508152602001906001019061087e565b50505050905090565b60606000606080606060008060008860405161094f9190611fd7565b90815260200160405180910390206000016000896040516109709190611fd7565b90815260200160405180910390206001015460008a6040516109929190611fd7565b908152602001604051809103902060020160008b6040516109b39190611fd7565b908152602001604051809103902060040160008c6040516109d49190611fd7565b908152602001604051809103902060050160008d6040516109f59190611fd7565b90815260200160405180910390206006015460008e604051610a179190611fd7565b908152602001604051809103902060070154868054610a3590611f69565b80601f0160208091040260200160405190810160405280929190818152602001828054610a6190611f69565b8015610aae5780601f10610a8357610100808354040283529160200191610aae565b820191906000526020600020905b815481529060010190602001808311610a9157829003601f168201915b50505050509650848054610ac190611f69565b80601f0160208091040260200160405190810160405280929190818152602001828054610aed90611f69565b8015610b3a5780601f10610b0f57610100808354040283529160200191610b3a565b820191906000526020600020905b815481529060010190602001808311610b1d57829003601f168201915b50505050509450838054610b4d90611f69565b80601f0160208091040260200160405190810160405280929190818152602001828054610b7990611f69565b8015610bc65780601f10610b9b57610100808354040283529160200191610bc6565b820191906000526020600020905b815481529060010190602001808311610ba957829003601f168201915b50505050509350828054610bd990611f69565b80601f0160208091040260200160405190810160405280929190818152602001828054610c0590611f69565b8015610c525780601f10610c2757610100808354040283529160200191610c52565b820191906000526020600020905b815481529060010190602001808311610c3557829003601f168201915b505050505092509650965096509650965096509650919395979092949650565b606060005b600380549050811015610dd75782604051602001610c959190611fd7565b60405160208183030381529060405280519060200120600160038381548110610cc157610cc0611fee565b5b90600052602060002001604051610cd891906120b1565b9081526020016040518091039020600501604051602001610cf991906120b1565b604051602081830303815290604052805190602001201415610dc45760038181548110610d2957610d28611fee565b5b906000526020600020018054610d3e90611f69565b80601f0160208091040260200160405190810160405280929190818152602001828054610d6a90611f69565b8015610db75780601f10610d8c57610100808354040283529160200191610db7565b820191906000526020600020905b815481529060010190602001808311610d9a57829003601f168201915b5050505050915050610deb565b8080610dcf906120f7565b915050610c77565b506040518060200160405280600081525090505b919050565b600081604051602001610e039190611fd7565b60405160208183030381529060405280519060200120600083604051610e299190611fd7565b9081526020016040518091039020600301604051602001610e4a91906120b1565b604051602081830303815290604052805190602001201415610e6f5760019050610e74565b600090505b919050565b600081604051602001610e8c9190611fd7565b60405160208183030381529060405280519060200120600183604051610eb29190611fd7565b9081526020016040518091039020600301604051602001610ed391906120b1565b604051602081830303815290604052805190602001201415610ef85760019050610efd565b600090505b919050565b83604051602001610f139190611fd7565b60405160208183030381529060405280519060200120600185604051610f399190611fd7565b9081526020016040518091039020600301604051602001610f5a91906120b1565b604051602081830303815290604052805190602001201415610f7b57600080fd5b86600185604051610f8c9190611fd7565b90815260200160405180910390206000019080519060200190610fb09291906116b9565b5085600185604051610fc29190611fd7565b90815260200160405180910390206001018190555084600185604051610fe89190611fd7565b9081526020016040518091039020600201908051906020019061100c9291906116b9565b508360018560405161101e9190611fd7565b908152602001604051809103902060030190805190602001906110429291906116b9565b50826001856040516110549190611fd7565b908152602001604051809103902060040190805190602001906110789291906116b9565b50604051806020016040528060008152506001856040516110999190611fd7565b908152602001604051809103902060050190805190602001906110bd9291906116b9565b5060006001856040516110d09190611fd7565b908152602001604051809103902060060160006101000a81548160ff021916908315150217905550816001856040516111099190611fd7565b9081526020016040518091039020600701819055508060018560405161112f9190611fd7565b90815260200160405180910390206008018190555060038490806001815401808255809150506001900390600052602060002001600090919091909150908051906020019061117f9291906116b9565b5050505050505050565b8160028360405161119a9190611fd7565b908152602001604051809103902060000190805190602001906111be9291906116b9565b50806002836040516111d09190611fd7565b908152602001604051809103902060010190805190602001906111f49291906116b9565b506005829080600181540180825580915050600190039060005260206000200160009091909190915090805190602001906112309291906116b9565b505050565b846040516020016112469190611fd7565b6040516020818303038152906040528051906020012060008660405161126c9190611fd7565b908152602001604051809103902060030160405160200161128d91906120b1565b6040516020818303038152906040528051906020012014156112ae57600080fd5b876000866040516112bf9190611fd7565b908152602001604051809103902060000190805190602001906112e39291906116b9565b50866000866040516112f59190611fd7565b9081526020016040518091039020600101819055508560008660405161131b9190611fd7565b9081526020016040518091039020600201908051906020019061133f9291906116b9565b50846000866040516113519190611fd7565b908152602001604051809103902060030190805190602001906113759291906116b9565b50836000866040516113879190611fd7565b908152602001604051809103902060040190805190602001906113ab9291906116b9565b50826000866040516113bd9190611fd7565b908152602001604051809103902060050190805190602001906113e19291906116b9565b50816000866040516113f39190611fd7565b908152602001604051809103902060060181905550806000866040516114199190611fd7565b9081526020016040518091039020600701819055506004859080600181540180825580915050600190039060005260206000200160009091909190915090805190602001906114699291906116b9565b505050505050505050565b60005b60038054905081101561159d576000151560016003838154811061149e5761149d611fee565b5b906000526020600020016040516114b591906120b1565b908152602001604051809103902060060160009054906101000a900460ff161515141561158a57600180600383815481106114f3576114f2611fee565b5b9060005260206000200160405161150a91906120b1565b908152602001604051809103902060060160006101000a81548160ff0219169083151502179055508160016003838154811061154957611548611fee565b5b9060005260206000200160405161156091906120b1565b908152602001604051809103902060050190805190602001906115849291906116b9565b5061159d565b8080611595906120f7565b915050611477565b5050565b600080600090505b6003805490508110156116ae57826040516020016115c79190611fd7565b604051602081830303815290604052805190602001206001600383815481106115f3576115f2611fee565b5b9060005260206000200160405161160a91906120b1565b908152602001604051809103902060050160405160200161162b91906120b1565b60405160208183030381529060405280519060200120141561169b5760016003828154811061165d5761165c611fee565b5b9060005260206000200160405161167491906120b1565b908152602001604051809103902060060160009054906101000a900460ff169150506116b4565b80806116a6906120f7565b9150506115a9565b50600090505b919050565b8280546116c590611f69565b90600052602060002090601f0160209004810192826116e7576000855561172e565b82601f1061170057805160ff191683800117855561172e565b8280016001018555821561172e579182015b8281111561172d578251825591602001919060010190611712565b5b50905061173b919061173f565b5090565b5b80821115611758576000816000905550600101611740565b5090565b600081519050919050565b600082825260208201905092915050565b6000819050602082019050919050565b600081519050919050565b600082825260208201905092915050565b60005b838110156117c25780820151818401526020810190506117a7565b838111156117d1576000848401525b50505050565b6000601f19601f8301169050919050565b60006117f382611788565b6117fd8185611793565b935061180d8185602086016117a4565b611816816117d7565b840191505092915050565b600061182d83836117e8565b905092915050565b6000602082019050919050565b600061184d8261175c565b6118578185611767565b93508360208202850161186985611778565b8060005b858110156118a557848403895281516118868582611821565b945061189183611835565b925060208a0199505060018101905061186d565b50829750879550505050505092915050565b600060208201905081810360008301526118d18184611842565b905092915050565b6000604051905090565b600080fd5b600080fd5b600080fd5b600080fd5b7f4e487b7100000000000000000000000000000000000000000000000000000000600052604160045260246000fd5b61192f826117d7565b810181811067ffffffffffffffff8211171561194e5761194d6118f7565b5b80604052505050565b60006119616118d9565b905061196d8282611926565b919050565b600067ffffffffffffffff82111561198d5761198c6118f7565b5b611996826117d7565b9050602081019050919050565b82818337600083830152505050565b60006119c56119c084611972565b611957565b9050828152602081018484840111156119e1576119e06118f2565b5b6119ec8482856119a3565b509392505050565b600082601f830112611a0957611a086118ed565b5b8135611a198482602086016119b2565b91505092915050565b600060208284031215611a3857611a376118e3565b5b600082013567ffffffffffffffff811115611a5657611a556118e8565b5b611a62848285016119f4565b91505092915050565b600082825260208201905092915050565b6000611a8782611788565b611a918185611a6b565b9350611aa18185602086016117a4565b611aaa816117d7565b840191505092915050565b60006020820190508181036000830152611acf8184611a7c565b905092915050565b6000819050919050565b611aea81611ad7565b82525050565b600060c0820190508181036000830152611b0a8189611a7c565b9050611b196020830188611ae1565b8181036040830152611b2b8187611a7c565b90508181036060830152611b3f8186611a7c565b9050611b4e6080830185611ae1565b611b5b60a0830184611ae1565b979650505050505050565b6000602082019050611b7b6000830184611ae1565b92915050565b600060e0820190508181036000830152611b9b818a611a7c565b9050611baa6020830189611ae1565b8181036040830152611bbc8188611a7c565b90508181036060830152611bd08187611a7c565b90508181036080830152611be48186611a7c565b9050611bf360a0830185611ae1565b611c0060c0830184611ae1565b98975050505050505050565b60008115159050919050565b611c2181611c0c565b82525050565b6000602082019050611c3c6000830184611c18565b92915050565b611c4b81611ad7565b8114611c5657600080fd5b50565b600081359050611c6881611c42565b92915050565b600080600080600080600060e0888a031215611c8d57611c8c6118e3565b5b600088013567ffffffffffffffff811115611cab57611caa6118e8565b5b611cb78a828b016119f4565b9750506020611cc88a828b01611c59565b965050604088013567ffffffffffffffff811115611ce957611ce86118e8565b5b611cf58a828b016119f4565b955050606088013567ffffffffffffffff811115611d1657611d156118e8565b5b611d228a828b016119f4565b945050608088013567ffffffffffffffff811115611d4357611d426118e8565b5b611d4f8a828b016119f4565b93505060a0611d608a828b01611c59565b92505060c0611d718a828b01611c59565b91505092959891949750929550565b60008060408385031215611d9757611d966118e3565b5b600083013567ffffffffffffffff811115611db557611db46118e8565b5b611dc1858286016119f4565b925050602083013567ffffffffffffffff811115611de257611de16118e8565b5b611dee858286016119f4565b9150509250929050565b600080600080600080600080610100898b031215611e1957611e186118e3565b5b600089013567ffffffffffffffff811115611e3757611e366118e8565b5b611e438b828c016119f4565b9850506020611e548b828c01611c59565b975050604089013567ffffffffffffffff811115611e7557611e746118e8565b5b611e818b828c016119f4565b965050606089013567ffffffffffffffff811115611ea257611ea16118e8565b5b611eae8b828c016119f4565b955050608089013567ffffffffffffffff811115611ecf57611ece6118e8565b5b611edb8b828c016119f4565b94505060a089013567ffffffffffffffff811115611efc57611efb6118e8565b5b611f088b828c016119f4565b93505060c0611f198b828c01611c59565b92505060e0611f2a8b828c01611c59565b9150509295985092959890939650565b7f4e487b7100000000000000000000000000000000000000000000000000000000600052602260045260246000fd5b60006002820490506001821680611f8157607f821691505b60208210811415611f9557611f94611f3a565b5b50919050565b600081905092915050565b6000611fb182611788565b611fbb8185611f9b565b9350611fcb8185602086016117a4565b80840191505092915050565b6000611fe38284611fa6565b915081905092915050565b7f4e487b7100000000000000000000000000000000000000000000000000000000600052603260045260246000fd5b60008190508160005260206000209050919050565b6000815461203f81611f69565b6120498186611f9b565b945060018216600081146120645760018114612075576120a8565b60ff198316865281860193506120a8565b61207e8561201d565b60005b838110156120a057815481890152600182019150602081019050612081565b838801955050505b50505092915050565b60006120bd8284612032565b915081905092915050565b7f4e487b7100000000000000000000000000000000000000000000000000000000600052601160045260246000fd5b600061210282611ad7565b91507fffffffffffffffffffffffffffffffffffffffffffffffffffffffffffffffff821415612135576121346120c8565b5b60018201905091905056fea26469706673582212206153b6e2dda76abbc2e1c8e770194504f1ac37b00729c35e81a2e5f667ed1d2c64736f6c634300080a0033",
  "immutableReferences": {},
  "source": "pragma solidity ^0.8.10;\n\ncontract TransplantContract {\n    struct doctor\n    {\n        string fullname;\n        uint age;\n        string gender;\n        string medical_id;\n        string blood_type;\n        string doctorType;\n        uint weight;\n        uint height;\n    }\n    struct transporter\n    {\n        string fullname;\n        uint age;\n        string gender;\n        string medical_id;\n        string blood_type;\n        string assigned_id;\n        bool isAssigned;\n        uint weight;\n        uint height;\n    }\n    struct trackStatus\n    {\n        string medical_id;\n        string status;\n    }\n    mapping (string=>doctor) doctorMap;\n    mapping (string=>transporter) transporterMap;\n    mapping (string=>trackStatus) trackStatusMap;\n    string[] TransportersArray;\n    string[] DoctorsArray;\n    string[] trackStatusArray;\n\n    function setTransporter(string memory _fullname, uint _age, string memory _gender, string memory _medical_id,\n                       string memory _blood_type, uint _weight, uint _height)\n    public\n    {\n        require ( keccak256(abi.encodePacked((transporterMap[_medical_id].medical_id))) != keccak256(abi.encodePacked(_medical_id)));\n        transporterMap[_medical_id].fullname = _fullname;\n        transporterMap[_medical_id].age = _age;\n        transporterMap[_medical_id].gender = _gender;\n        transporterMap[_medical_id].medical_id = _medical_id;\n        transporterMap[_medical_id].blood_type = _blood_type;\n        transporterMap[_medical_id].assigned_id= \"\";\n        transporterMap[_medical_id].isAssigned=false;\n        transporterMap[_medical_id].weight = _weight;\n        transporterMap[_medical_id].height = _height;\n\n        TransportersArray.push(_medical_id);\n    }\n    function getDoctor(string memory _medical_id) view public returns(string memory, uint, string memory, string memory, string memory, uint, uint)\n    {\n        return\n        (\n            doctorMap[_medical_id].fullname,\n            doctorMap[_medical_id].age,\n            doctorMap[_medical_id].gender,\n            doctorMap[_medical_id].blood_type,\n            doctorMap[_medical_id].doctorType,\n            doctorMap[_medical_id].weight,\n            doctorMap[_medical_id].height\n        );\n    }\n    function setDoctor(string memory _fullname, uint _age, string memory _gender, string memory _medical_id,\n                       string memory _blood_type, string memory _type, uint _weight, uint _height)\n    public\n    {\n        require ( keccak256(abi.encodePacked((doctorMap[_medical_id].medical_id))) != keccak256(abi.encodePacked(_medical_id)));\n        doctorMap[_medical_id].fullname = _fullname;\n        doctorMap[_medical_id].age = _age;\n        doctorMap[_medical_id].gender = _gender;\n        doctorMap[_medical_id].medical_id = _medical_id;\n        doctorMap[_medical_id].blood_type = _blood_type;\n        doctorMap[_medical_id].doctorType = _type;\n        doctorMap[_medical_id].weight = _weight;\n        doctorMap[_medical_id].height = _height;\n\n        DoctorsArray.push(_medical_id);\n    }\n    function setStatus(string memory _medical_id,string memory status)\n    public\n    {\n        trackStatusMap[_medical_id].medical_id = _medical_id;\n        trackStatusMap[_medical_id].status = status;\n\n        trackStatusArray.push(_medical_id);\n    }\n    function getStatus(string memory _medical_id) view public returns(string memory)\n    {\n        for(uint i=0;i<trackStatusArray.length;i++)\n        {\n            if(keccak256(abi.encodePacked((trackStatusMap[trackStatusArray[i]].medical_id))) == keccak256(abi.encodePacked(_medical_id)))\n            {\n                return trackStatusMap[trackStatusArray[i]].status;\n            }\n        }\n        return \"\";\n    }\n    function assignTransporter(string memory _medical_id) public\n    {\n        for(uint i=0;i<TransportersArray.length;i++)\n        {\n            if(transporterMap[TransportersArray[i]].isAssigned==false)\n            {\n                transporterMap[TransportersArray[i]].isAssigned=true;\n                transporterMap[TransportersArray[i]].assigned_id=_medical_id;\n                break;\n            }\n        }\n    }\n    function isTransporterAssigned(string memory _assigned_id) view public returns(bool)\n    {\n        for(uint i=0;i<TransportersArray.length;i++)\n        {\n            if(keccak256(abi.encodePacked((transporterMap[TransportersArray[i]].assigned_id))) == keccak256(abi.encodePacked(_assigned_id)))\n            {\n                return transporterMap[TransportersArray[i]].isAssigned;\n            }\n        }\n        return false;\n    }\n    function getMedicalidOfTransporter(string memory _assigned_id) view public returns(string memory)\n    {\n        for(uint i=0;i<TransportersArray.length;i++)\n        {\n            if(keccak256(abi.encodePacked((transporterMap[TransportersArray[i]].assigned_id))) == keccak256(abi.encodePacked(_assigned_id)))\n            {\n                return TransportersArray[i];\n            }\n        }\n        return \"\";\n    }\n\n    function getTransporter(string memory _medical_id) view public returns(string memory, uint, string memory, string memory, uint, uint)\n    {\n        return\n        (\n            transporterMap[_medical_id].fullname,\n            transporterMap[_medical_id].age,\n            transporterMap[_medical_id].gender,\n            transporterMap[_medical_id].blood_type,\n            transporterMap[_medical_id].weight,\n            transporterMap[_medical_id].height\n        );\n    }\n\n    function validateDoctor(string memory _medical_id) view public returns(bool)\n    {\n\n     if (keccak256(abi.encodePacked((doctorMap[_medical_id].medical_id))) == keccak256(abi.encodePacked(_medical_id)))\n        return true;\n     else return false;\n\n    }\n    function validateTransporter(string memory _medical_id) view public returns(bool)\n    {\n\n     if (keccak256(abi.encodePacked((transporterMap[_medical_id].medical_id))) == keccak256(abi.encodePacked(_medical_id)))\n        return true;\n     else return false;\n\n    }\n    function getAllTransporterIDs() view public returns(string[] memory)\n    {\n        return TransportersArray;\n    }\n    function getAllDoctorIDs() view public returns(string[] memory)\n    {\n        return DoctorsArray;\n    }\n    function getCountOfTransporters() view public returns (uint)\n    {\n        return TransportersArray.length;\n    }\n    function getCountOfDoctors() view public returns (uint)\n    {\n        return DoctorsArray.length;\n    }\n}",
  "sourcePath": "/Users/saikiran/Documents/BlockChain/OrganDonationPlatform/organ-donation-platform/contracts/TransplantContract.sol",
  "compiler": {
    "name": "solc",
    "version": "0.8.10+commit.fc410830.Emscripten.clang"
  },
  "schemaVersion": "3.4.11",
  "updatedAt": "2023-04-28T02:08:16.587Z",
  "networkType": "ethereum",
  "devdoc": {
    "kind": "dev",
    "methods": {},
    "version": 1
  },
  "userdoc": {
    "kind": "user",
    "methods": {},
    "version": 1
  }
}